:1090000000700020E90C0100D3B200004BB3000057
:1090100077B700001FB80000BFB8000000000000D4
:1090200000000000000000000000000099E30000C4
:10903000EFB800000000000041E300008DDE0000FA
:109040006D0F01006D0F01006D0F01006D0F01002C
:109050006D0F01006D0F01006D0F01006D0F01001C
:109060006D0F01006D0F01006D0F01006D0F01000C
:109070006D0F01006D0F01006D0F01006D0F0100FC
:109080006D0F01006D0F01006D0F01006D0F0100EC
:109090006D0F01006D0F01006D0F01006D0F0100DC
:1090A0006D0F01006D0F01006D0F01006D0F0100CC
:1090B0006D0F01006D0F01006D0F01006D0F0100BC
:1090C0006D0F0100B10201006D0F01006D0F010075
:1090D0006D0F01006D0F01006D0F01006D0F01009C
:1090E0006D0F01006D0F01006D0F01006D0F01008C
:1090F0006D0F01006D0F01006D0F01006D0F01007C
:10910000010601006D0F01006D0F01006D0F0100E0
:109110006D0F01006D0F01006D0F01006D0F01005B
:109120006D0F01006D0F0100BD0601006D0F010004
:109130006D0F0100170401006D0F01006D0F01009C
:109140006D0F01006D0F01006D0F01006D0F01002B
:109150006D0F01006D0F01006D0F01006D0F01001B
:109160006D0F01006D0F01006D0F01006D0F01000B
:109170006D0F01006D0F01006D0F01006D0F0100FB
:1093F0006D0F01006D0F01006D0F0100FFFFFFFFFA
:10940000FFFFFFFFFFFFFFFFFFFFFFFFFE7FFFFFED
:1094100010B40469A409A401C9B2002901D0012132
:1094200000E0002111F001010C43D2B2002A01D06A
:10943000012200E000220199520012F002021443BE
:109440009B0013F00C032343090111F030010B437F
:10945000036110BC7047026C32F01002C9B20029DF
:1094600001D0012100E00021090111F010010A439F
:1094700002647047026C32F00802C9B2002901D0C0
:10948000012100E00021C90011F008010A43026433
:109490007047026C32F00402C9B2002901D00121E8
:1094A00000E00021890011F004010A4302647047C2
:1094B000026C32F00202C9B2002901D0012100E0A1
:1094C0000021490011F002010A4302647047026C56
:1094D00052085200C9B2002901D0012100E0002148
:1094E00011F001010A430264704710B4446834F477
:1094F0007F64C9B2002901D0012100E00021C90226
:1095000011F400610C43120112F0F00222431B021D
:1095100013F4E0631A43426010BC7047426832F4AF
:109520008052090311F48051114341607047816EEC
:10953000002181667047C9B2002901D0012100E0F5
:109540000021090711F08051520012F00E020A4367
:1095500013F001031A43826670470069C0F3036089
:10956000704710B4019C090611F07061120412F4E6
:10957000702211431B0113F0F003194314F00F0480
:109580002143416110BC704710B4019C090611F0E1
:109590007061120412F4702211431B0113F0F003E6
:1095A000194314F00F042143816110BC704710B4BB
:1095B000019C090611F07061120412F4702211432B
:1095C0001B0113F0F003194314F00F042143C16190
:1095D00010BC704711F00701120212F4E06211434F
:1095E000C0F80413704711F00701120212F4E06290
:1095F0001143C0F80412704711F00701120212F46F
:10960000E0621143C0F80411704711F00701120223
:1096100012F4E0621143C0F804167047026A32F097
:109620007062090611F07061114301627047D0F851
:109630000002C0F34060002801D0012000E00020BB
:10964000C0B27047D0F80002000E10F00100704761
:10965000D0F8080210F001007047D0F8001231F481
:109660000001C0F8001270470021C0F800127047D6
:10967000C9B211F00101C0F808127047C9B200293F
:1096800001D0012100E00021D2B2002A01D0012244
:1096900000E00022DBB2002B01D0012300E0002318
:1096A000490011F00201920012F004021143DB059F
:1096B00013F40003194351F00101C0F80012704780
:1096C000D0F80003C0F34060002801D0012000E082
:1096D0000020C0B27047D0F80003000E10F0010067
:1096E0007047D0F8080310F003007047D0F800135B
:1096F00031F40001C0F8001370475FF08061C0F8DA
:1097000000137047C9B211F00301C0F80813704785
:10971000C9B2002901D0002100E00121D2B2002A03
:1097200001D0012200E00022C90011F00801D20599
:1097300012F40002114351F00101C0F80013704708
:10974000D0F80001C0F34060002801D0012000E003
:109750000020C0B27047D0F80001000E10F00100E8
:109760007047D0F8001131F40001C0F800117047C3
:109770005FF08061C0F800117047090111F03001FD
:10978000D20012F0080211439B0013F004031943A6
:10979000C0F808117047C9B2002901D0012100E0CA
:1097A0000021D2B2002A01D0012200E00022DBB267
:1097B000002B01D0012300E00023090411F48031C3
:1097C000520412F400321143DB0513F40003194371
:1097D00051F00101C0F800117047D0F80006C0F345
:1097E0004060002801D0012000E00020C0B2704796
:1097F000D0F80006000E10F001007047D0F80806FF
:10980000C0F302207047D0F80806C0F30440704748
:10981000D0F8001631F40001C0F8001670475FF070
:109820008061C0F800167047C9B2090211F4E06106
:10983000D2B2120412F4F8121143C0F8081670479D
:10984000C9B2002901D0012100E00021D2B2002AD2
:1098500001D0012200E00022DBB2002B01D0012365
:1098600000E00023090411F48031520412F40032A4
:109870001143DB0513F40003194351F00101C0F853
:109880000016704730B4D2B2002A01D0012500E0A2
:109890000025039C029A1B0613F0E063E40014F019
:1098A0000804234312F007021343AD0715F0804567
:1098B0002B43DFF87825C9B232F8111040F8213077
:1098C00030BC7047D2B2002A0FD0DFF860250B0001
:1098D000DBB232F81330C9B232F8111050F821104F
:1098E00051F0804140F823100EE0DFF840250B00D6
:1098F000DBB232F81330C9B232F8111050F821102F
:1099000031F0804140F823107047827812F07F02D6
:10991000C9B2002901D0002100E0012152EAC112A0
:10992000827070470A0052B2002A01D520225118D5
:10993000C9B2027912F0E00211F01F011143017166
:109940007047406900F0FF00704738B59EB00500D1
:10995000002803D1684600F01AF96D46280000F08F
:1099600015F80400200000B200280BD115F16C009E
:1099700000F053F815F1440000F08AF815F1740076
:1099800000F0F4F8200000B21FB030BD38B504007C
:109990000025002C3ED000F081FB0500280000B21D
:1099A000002803D1200000F0A9FB0500280000B228
:1099B00000282FD194F83000002803D0E06ADFF8A7
:1099C000EC15086094F83500002805D094F83410A0
:1099D000DFF8DC05FFF722FE94F84300002819D0D9
:1099E00014F13601012000F065FC0500280000B2EA
:1099F000002805D114F13A01022000F05BFC0500BB
:109A0000280000B2002805D114F13E01032000F027
:109A100051FC0500280000B232BD7CB50400002CCA
:109A200035D06068002832D000252DE0DFF884654D
:109A300000226068052101FB05F1415C3000FFF761
:109A400041FF6068052101FB05F10844C0780190E1
:109A50006068052101FB05F1084400790090606809
:109A6000052101FB05F1084483786068052101FBAD
:109A700005F1084442786068052101FB05F1415C6D
:109A80003000FFF7FFFE6D1C20688542CED373BD0A
:109A900038B504002078002806D0E378A2786178F1
:109AA000DFF8F405FFF721FD2079002808D0607960
:109AB0000090A379E279217ADFF8DC05FFF7A8FCB2
:109AC000207F002817D0DFF8D055617F2800FFF7EE
:109AD000FEFCA17F2800FFF7EBFCE17F2800FFF7E9
:109AE000D8FC94F820102800FFF7C4FC94F821104B
:109AF0002800FFF7B0FC207B002815D000200FE0E5
:109B00000100C9B203290AD20100C9B204EB8101E4
:109B10000969DFF8DC250300DBB242F82310401CA2
:109B20000100C9B20329EBD394F8220000281CD00D
:109B3000DFF864552800FFF7FAFC94F82410280099
:109B4000FFF7ECFC0023002200212800FFF7F3FCC4
:109B500094F82300002808D094F8263094F82520A3
:109B600094F823102800FFF7E6FC31BD38B5040057
:109B7000207800280AD0DFF87C5561782800FFF7AC
:109B8000C4FE94F902102800FFF7CCFE31BD01217C
:109B9000C1700021017101214171002181710121F8
:109BA0000170012141700121817001218173012126
:109BB0000173002141730021C17101210172012152
:109BC0004172012180F830100021C16201214177EA
:109BD000DFF82415016100210175002101770121C1
:109BE0004175002181750221C17501210176012194
:109BF0004176012180F82810002180F820100021F2
:109C000080F82710002180F821100C2180F8221004
:109C1000002180F82310012180F82410012180F810
:109C20002510012180F83510032180F8341001211E
:109C300080F84310032180F83910002180F8381093
:109C4000012180F83710012180F83610022180F8B8
:109C50003D10012180F83C10002180F83B100321C9
:109C600080F83A10062180F84110002180F8401059
:109C7000012180F83F10032180F83E10DFF8FC1529
:109C800001672021C166012180F84410002180F87D
:109C90004510002180F84610002180F8471001216E
:109CA00080F84810012180F84C10012180F84B10F9
:109CB000002180F84A10002180F84910012180F825
:109CC0006010012180F86110012180F862100121EB
:109CD00080F86310012180F86410012180F865107C
:109CE000012180F86B10012180F85010002141659E
:109CF000002181650021C165012180F866100121E4
:109D000080F86710002180F86810002180F8691041
:109D1000002180F86A10012180F87410012180F878
:109D20007510002180F87610704780B5DFF8600765
:109D3000FFF707FE012805D0042805D0802805D1AB
:109D4000032004E0012002E0022000E00420C0B271
:109D500002BD70B505000020FFF7E7FF2900C0B283
:109D600000F0A8FA0600300000B200280DD10A2445
:109D7000641EDFF83C02FFF7F0FBE978884201D06F
:109D8000002CF5D1002C00D10326300000B270BDAC
:109D9000FEB504000D000026002D13D100208DF823
:109DA000040001208DF8050000208DF80600012038
:109DB0008DF8010001208DF8020001208DF80000CF
:109DC0006D46FFE77A4F3800FFF731FC002801D0DD
:109DD000022605E03800FFF740FC3800FFF744FC9E
:109DE000E4B2002C1ED0300000B200281AD1AA78AC
:109DF00069783800FFF7F7FB29783800FFF738FC5F
:109E0000AB796A7929793800FFF738FC642400E0DF
:109E1000641E00F0FCFA002801D1002CF8D1002CBF
:109E200000D10326300000B2FEBD0000040B01008B
:109E3000FEB504000D000026002D10D101208DF884
:109E4000050000208DF8060001208DF8010001209A
:109E50008DF8020000208DF800006D46FFE7544F9A
:109E60003800FFF72DFC002801D0022605E038005D
:109E7000FFF73CFC3800FFF740FCE4B2002C1DD09B
:109E8000300000B2002819D1AA7869783800FFF7AD
:109E9000A1FB29783800FFF735FCAA7969793800E9
:109EA000FFF736FC642400E0641E00F0C2FA0028CC
:109EB00001D1002CF8D1002C00D10326300000B2D3
:109EC000FEBDF8B584B004000D000026002D18D1A9
:109ED00000208DF8040000208DF80C0001208DF882
:109EE000080001208DF8090001208DF805000020F0
:109EF0008DF8060002208DF807007F4800906D461F
:109F0000FFE72B4F3800FFF71BFC002801D002268B
:109F100009E03800FFF725FC3800FFF729FC002096
:109F2000DFF878150860E4B2002C3BD0300000B2B6
:109F3000002837D16A7A297A3800FFF75DFB6B7900
:109F4000AA79E9793800FFF718FC2879002803D0AE
:109F500002280FD007D314E02B7B00220021380009
:109F6000FFF719FC0DE02B7B002201213800FFF7E1
:109F700012FC06E02B7B012201213800FFF70BFCCD
:109F8000FFE72868DFF814150860DFF8144500E0E3
:109F9000641E00F02FFA002801D1002CF8D1002C0B
:109FA00000D10326300000B205B0F0BD0C00002047
:109FB0000040064000500640FEB504000D0000269B
:109FC000002D16D100208DF8000000208DF807002C
:109FD00001208DF8040001208DF8050000208DF887
:109FE000010007208DF8020000208DF803006D4667
:109FF000FFE7DFF8A4743800FFF7EFFB002801D07B
:10A00000022605E03800FFF703FC3800FFF707FCE5
:10A01000E4B2002C3CD0300000B2002838D100F06F
:10A02000E9F96978491CB0FBF1F06A7929793800BF
:10A03000FFF7EBFAAA7869783800FFF7F5FB287884
:10A04000002803D002280FD007D314E0EB790022B8
:10A0500000213800FFF7F4FB0DE0EB79002201212D
:10A060003800FFF7EDFB06E0EB7901220121380013
:10A07000FFF7E6FBFFE74FF47A7400E0641E00F0A0
:10A08000EAF9002801D1002CF8D1002C00D10326D8
:10A09000300000B2FEBD0000008004401CB500246A
:10A0A000DFF8F403FFF759FA03281ED000F0C1F9D6
:10A0B000002804D100210120FFF7BAFE040020008F
:10A0C00000B2002811D103208DF80300DFF8D4037B
:10A0D000C1788DF8021001798DF8011040798DF862
:10A0E00000006846FFF735FE0400200000B216BDF0
:10A0F0000000002000D0074000127A007CB5040068
:10A1000000202100E078FFF743FE0600300000B297
:10A11000002810D114F11001607FFFF7D2FE060075
:10A12000300000B2002806D114F1200194F8280074
:10A13000FFF742FF0600FFF7F8FD012804D00CD31B
:10A14000032807D003D308E014F1360506E014F124
:10A150003A0503E014F13E0500E00025300000B2AE
:10A16000002840F08780E87803286AD1012694F817
:10A170002800002815D0300000B2012811D1062097
:10A180008DF80300DFF82003417A8DF80210817A00
:10A190008DF80110C07A8DF800006846FFF7D9FDF0
:10A1A0000600607F002815D0300000B2012811D1D0
:10A1B00001208DF80300DFF8F00281798DF802109C
:10A1C000C1798DF80110007A8DF800006846FFF71C
:10A1D000C0FD0600E078002815D0300000B201284C
:10A1E00011D102208DF80300DFF8BC0201788DF850
:10A1F000021041788DF8011080788DF800006846D3
:10A20000FFF7A7FD0600300000B2002832D1E11DA3
:10A21000A07BFFF70DFE0600300000B2002829D118
:10A22000E8788DF80300A8788DF8020068788DF83A
:10A23000010028788DF800006846FFF78AFD0600C7
:10A2400018E0E8788DF80300A8788DF802006878A7
:10A250008DF8010028788DF800006846FFF779FD39
:10A260000600300000B2002804D1E11DA07BFFF7FA
:10A27000DFFD0600300000B276BD00000084FF1F45
:10A2800080B50021C0B2012806D0022807D00328DB
:10A2900008D0062809D00BE000F0ACF809E000F087
:10A2A000B6F806E000F0C5F803E000F0D4F800E0EE
:10A2B000002002BD2DE9F84381460C000025002056
:10A2C000A678761CA7787F1C6078401C474394F8DA
:10A2D000028018F101082078401C00FB08F8E078A3
:10A2E000FFF7CEFF00095FFA89F9B9F1010F05D038
:10A2F0007CD3B9F1030F51D028D377E0DFF8AC114C
:10A300000C22E3785343CB581B095E43864211D39A
:10A31000E37853430B445B681B095F43874209D3CF
:10A32000E37802FB03F211448968090901FB08F88C
:10A33000804501D2012508E0207800906378A2785A
:10A34000E178DFF85401FFF70CF94FE0DFF8602106
:10A350000C21E3784B43D3581B095E43864211D34B
:10A36000E3784B4313445B681B095F43874209D37F
:10A37000E37801FB03F111448968090901FB08F83E
:10A38000804501D2012508E0207800906378A2780A
:10A39000E178DFF80401FFF7F7F827E00C21DFF898
:10A3A0001421E3784B43D3581B095E43864211D3F3
:10A3B000E3784B4313445B681B095F43874209D32F
:10A3C000E37801FB03F111448968090901FB08F8EE
:10A3D000804501D2012508E0207800906378A278BA
:10A3E000E178DFF8B400FFF7E2F8FFE7280000B2F9
:10A3F000BDE8F28380B5DFF89C00FFF7ACF90028D8
:10A4000003D0DFF89800006800E0002002BD38B5F6
:10A410000024DFF880502800FFF714F9002806D048
:10A420002800FFF715F9002801D0DFF88C40200044
:10A4300032BD10B5DFF85C402000FFF74CF9002872
:10A4400007D02000FFF74DF9DFF8701051F8200019
:10A4500000E0002010BD38B5DFF83C502800FFF7C1
:10A46000C7F9002811D0FFF7C5FF0400002C0BD05E
:10A470002800FFF7C3F9401CB4FBF0F42800FFF7F5
:10A48000C2F910304443640800E00024200032BDCB
:10A4900000E0074000400640004006401000002059
:10A4A00088E73000040F0100100F0100F80B0100D5
:10A4B000A40B01004C0C010000127A005C0F01009B
:10A4C0002DE9F0439FB000BF65A6269CDFF8B48A53
:10A4D0008DF83B40029100240B944FF0FF37044667
:10A4E00091461D460AE019F8011B0298A047002872
:10A4F000029000F0A1800B98401C0B9099F800008E
:10A5000050B12528EFD10021002205910692079134
:10A51000089209910A9203E00B98A5E041F001012D
:10A5200019F8010F2028F9D023280CD02B2804D0AB
:10A530002D2805D0302809D080E041F00201EFE756
:10A5400041F00401ECE741F00801E9E741F01001B6
:10A55000E6E70D920AE00D98404505DA00EB800031
:10A5600002EB4002303A0D9209F1010999F80020FE
:10A57000A2F130000A28EED399F800002E2818BF67
:10A580000C9726D119F8010F2A2808D128682860CD
:10A5900009F1010950F8042B28600C9219E02D28CC
:10A5A0000CBF09F10109002000220C920BE040B918
:10A5B0000C9A424505DA02EB820203EB4203303B80
:10A5C0000C9309F1010999F80030A3F130020A2A2D
:10A5D000EDD3ADF83810304699F8001000F06EFE5B
:10A5E00008B119F8010B8DF83A009DF83A00682877
:10A5F00005D199F8000068280CD1622106E06C288A
:10A6000004BF99F800006C2804D171218DF83A102C
:10A6100009F1010910A804902A4619F8013B69467E
:10A62000204600F061F838B910AA6946204600F0CB
:10A630008FF900287FF562AF384615E02A2888D1C7
:10A640002A682A6052F8040B2A6000280D9003D56E
:10A6500040420D9041F0040109F101098CE700002E
:10A66000686A6C747A4C00001FB0BDE8F083622801
:10A6700020D0682811D06A2803D06C2827D07128F0
:10A6800025D10868C01D20F007000860D0E900232C
:10A6900008300860194610467047002A0A680A60A8
:10A6A000106803D0121D0A6000B217E0121D0A6084
:10A6B00080B217E0002A0A680A60106803D0121DF1
:10A6C0000A6040B20AE0121D0A60C0B20AE0002A25
:10A6D0000A680A60106803D0121D0A60C11770472B
:10A6E000121D0A600021704770B51C460D46B4F17A
:10A6F00025002E69114600F019811C3868D0001F12
:10A70000022865D9133842D0093861D0801E16D08E
:10A71000401E1ED0401E02285AD9001F19D0401FCB
:10A7200000F08180401E32D0401E00F0CB80C01E61
:10A7300000F0DA80801E2AD0C01E28D0FCE06869B4
:10A74000421C6A610A680A6052F8043B0A6033548A
:10A75000FCE095F83A000122FFF789FFC5E9000106
:10A76000002904D56869411C69612D220DE0288FFC
:10A77000810704D56869411C69612B2205E0C00787
:10A7800021D56869411C6961202232541BE095F88B
:10A790003A000022FFF76BFFC5E9000195F8380089
:10A7A000010710D5D5E90023002B08BF002A0AD0E5
:10A7B00044F02000782806D1686930213154401CCB
:10A7C000421C6A613454214668693044E86087E07D
:10A7D0000868C01D20F007000860D0E90023083099
:10A7E0000860C5E90023D5E90001C80F04D06869F5
:10A7F000411C69612D220DE0288F810704D568690D
:10A80000411C69612B2205E0C00704D56869411C21
:10A8100069612022325468693044E8602146284644
:10A8200000F0C4F992E005F13A02507820B14FF0FF
:10A83000FF340FF6202062E01078622808D06828E4
:10A8400024D06A2812D06C282ED071280ED02BE08C
:10A850000A680A6052F8040B0A6020B94FF0FF340E
:10A860000FF608204BE0E96A01706FE00A680A60A1
:10A8700052F8040B0A6020B94FF0FF340FF6EC10C9
:10A880003DE0EA6AD317C0E900235FE00A680A6086
:10A8900052F8040B0A6020B94FF0FF340FF6CC10C9
:10A8A0002DE0E96A018051E00A680A6052F8040B61
:10A8B0000A6020B94FF0FF340FF6B0101FE0E96ACC
:10A8C000016043E00A680A6052F8040B0A60002144
:10A8D00020F0000221F0FF33C5E90023EE6078216B
:10A8E000284600F0BBF831E00868086050F8044BD7
:10A8F0000860EC603CB94FF0FF340FF6881000F0B0
:10A90000E9FC201A70BD2E6B002E04D5204600F005
:10A9100001FD044608E032460021204600F016FD05
:10A92000002814BF041B3446AC610FE06869411C69
:10A9300069612522325409E06969481C6861252251
:10A940007254210002D0431C6B613454002070BD4E
:10A950002DE9FC410F46064690467A6B7869396AC4
:10A96000BC6A121AB869521A796A121AF869521A2C
:10A97000121A97F83800141B41070FD42020002C1E
:10A980008DF800000ADD254601236A463946304627
:10A9900000F048FC00285DD16D1EF5D17B69424670
:10A9A0003946304600F03EFC002853D130208DF867
:10A9B00000003D6A002D09DD01236A463946304614
:10A9C00000F030FC002845D16D1EF5D1BB69FA6856
:10A9D0003946304600F026FC00283BD130208DF867
:10A9E00000007D6A002D08DD01236A4639463046A5
:10A9F00000F018FC70BB6D1EF6D1F868B969FB69F0
:10AA000042183946304600F00DFC18BB30208DF856
:10AA10000000BD6A002D08DD01236A463946304634
:10AA200000F000FCB0B96D1EF6D197F83800410770
:10AA30000DD52020002C8DF8000008DD01236A468A
:10AA40003946304600F0EEFB20B9641EF6D10020F6
:10AA5000BDE8F6814FF0FF30BDE8F6812DE9FC43FB
:10AA600007466F293E6908BF082405D041F0200041
:10AA7000782814BF0A2410243C25D7E90023642930
:10AA800018BF69299046994605D1002B03D5D8F106
:10AA9000000869EB4909B9F1000F08BFB8F1000FD0
:10AAA0001FD1386BE8B9082C4CD197F83800010752
:10AAB00048D530203B2586F83B0043E000280ED5E2
:10AAC00097F8380000F01400102808D17B6B7969E2
:10AAD000386A5B1A1B1A9A1A002AC8BF3A62BDE884
:10AAE000F3838DF80010404649462246E31700F0F4
:10AAF00059FC3032D0B26D1E3A28019504DB9DF826
:10AB00000000A0F151018A1872554046494622467C
:10AB1000E31700F047FC80465FEA010908BFB8F17F
:10AB2000000F03D0F86871198842DCD3082C09D1D2
:10AB300097F83800010705D5705D302802D06D1EEA
:10AB400030207055C5F13C02BA617119F960386B5B
:10AB50008242B3DA821A3A624FF6EF70398F0140BF
:10AB60003987BDE8F3832DE9D04306460F461446E6
:10AB70004FF00008DFF8109412E0E00707D54246D6
:10AB80004B463046394600F025FD06460F46404606
:10AB9000494642464B4600F01DFD641080468946FA
:10ABA000002CEAD130463946BDE8D0832DE9F84F74
:10ABB00005468A464AF020048EB0D5E90089612C0A
:10ABC00002AE09D0286B002848BF062003D408BF76
:10ABD000672C01D101202863D5E900014A005215F4
:10ABE000521C0DD10B030BD0AAF1610103201A29CD
:10ABF000A86102D20FF2A86110E00FF2A8610DE087
:10AC00004A005215521C0ED10B030CD1AAF161015E
:10AC100003201A29A86116D30FF29061E868032275
:10AC200000F0AAFDC0E1CDE90C01DDE90C2323F021
:10AC30000043B3F5801F0DD20027002B08BF002A68
:10AC4000019703D111E00FF26061E7E701AA00F07C
:10AC5000E7FD0AE0CD48CE4900EB1350DDE90C23B7
:10AC600001900B40CB4910461943C5E90001612C06
:10AC70000DD1E86830210170821CBAF1610FEA60E1
:10AC80000CBF7821582141706869801C6861D5E942
:10AC90000001CDE90C01DDE90C2333F0004104BFD4
:10ACA0000028002300F04881612C40F0A080286B30
:10ACB000494600284CBF4FF0210B00F1010B4046E4
:10ACC00000220023DDE90C8900F0E2FD01990BF17F
:10ACD000010738BF89F00049091F002F01918DF845
:10ACE00008200DF1090040F33581A949009106467D
:10ACF000404649460022002300F0E2FD80F0298111
:10AD00004800400D00F11C0211D0002A0FDD40F276
:10AD1000FF739A4205DBA04909F00040014300207F
:10AD200011E0009B194041EA025140460BE028F037
:10AD3000000039F0004108BF00280FBF49461C221F
:10AD4000494600F0D5FD8046894600F06FFEFF1FA2
:10AD5000002F044609DD00F087FE02460B46404600
:10AD6000494600F093FE80468946F01D072104E025
:10AD700004F00F0200F8012D2411002C01DD491E02
:10AD8000F6D5491E5CBF002200F8012DF9D5DCE0A4
:10AD90000020194602AA0A4400E05B1E12F801498D
:10ADA000491E8442F9D00F2804D10DF10900425CFC
:10ADB000521C4254002904D50198001D02AE5B1CB0
:10ADC0000190581E0CD43118AAF13A040A78303296
:10ADD000D7B23A2FA8BFA218401E01F80129F5D515
:10ADE000286B002840F1A780591E2963A3E0019930
:10ADF0006A4A47F29750414391FBF2F2019229F0DF
:10AE00000046D2F1070204DD40463146FFF7ABFEB3
:10AE10000AE0524200206249FFF7A5FE02460B46B7
:10AE20004046314600F0A4FE8046662C286B06BFE3
:10AE3000019F0A3706273F18142FC8BF1427302058
:10AE40008DF8080089460DF1090000E03046002F1A
:10AE500034DD06464046494600F0AEFF01460A464C
:10AE600006F1080304200A26B2FBF6F606EB860E6E
:10AE7000A2EB4E02303203F8012C0A22B6FBF2F2AA
:10AE800002EB820EA6EB4E063036401E03F8026D32
:10AE9000E9D1083F002F03F10806D7DD084600F08E
:10AEA0009FFF02460B464046494600F0EFFD002258
:10AEB0003C4B00F08FFB80468946CBE70DF1090142
:10AEC000401A0DF1090604E00199491E401E019146
:10AED000761C31783029F7D0662C02D10199491CB3
:10AEE00003E0652C0CBF012100212B6BCB1898428D
:10AEF000B8BF431E002B1ED4834204DAF05C352811
:10AF0000A8BF392000DA30201946721E02EB010872
:10AF100000E05B1E18F80199491E8145F9D03928D7
:10AF200002D1705C401C7054002904D50198401C6B
:10AF300016465B1C0190019800B200901BB232468D
:10AF40005146284600F034F82EE0C61D002F3FF78A
:10AF5000CFAE30460DF10901401A03465845C8BF2F
:10AF60005B46002B0DF109063FF53AAF8342BFF671
:10AF70000FAF0DF10900C15C07297FF709AF0F2062
:10AF800007E70000CBCCCC0C0000244002FCFFFF04
:10AF9000FFFF0F800000E03F0000F07FA08601006F
:10AFA0000000F03F84D797410FB0BDE8F08F00005C
:10AFB0002DE9FC43054683B01F46D5F83080002FAD
:10AFC000164602DC5FF00107B9A6894649F0200069
:10AFD000BDF93040662808BF641C17D0672840F0D0
:10AFE000888014F1040FC0F28A80444580F2878083
:10AFF00095F83800641C010702D44745B8BFB8462D
:10B0000020B2B8EB000848BF4FF000080FFA84F9EF
:10B01000E868A969B9F1000F27DC4A1C30234354C2
:10B02000B8F1000F03DC95F83800010703D5E96893
:10B030002E208854521C18EB090FB8BFC8F1000429
:10B0400024B260426862A044B845AA61B8BF4746CE
:10B05000EB68A8693FB2EF613A463146184400F008
:10B060008BFBA8EB0700A862C5E022B29742084418
:10B0700019DA3A46314600F07FFBA8693818A9EB87
:10B080000707B8F1000FA8616F6203DC95F838106C
:10B090000A0705D5EA682E211154E869401CE861C9
:10B0A000C5F82880A7E0314600F066FBA8693F1B81
:10B0B000B8F1000F484403DC95F838100A0703D5AF
:10B0C000EA682E211154401CA86138B28045EB6813
:10B0D000A869B8BF47463AB206EB0901184400F028
:10B0E0004BFBA9693FB27918A8EB0707A9616F620A
:10B0F00081E0B9F1610F16D14FF0700918E04745B2
:10B1000004DA95F838100A0758BFB846B8F10108B4
:10B1100048BF4FF00008B9F1670F14BF4FF0450961
:10B120004FF0650904E0B9F1410F08BF4FF0500935
:10B13000A969EB68481CA861B8F1000F16F8012B4B
:10B140005A5403DC95F838100A0719D5EA68431CED
:10B15000AB612E211154B8F1000F11DD7F1E38B202
:10B1600031468045EE68B8BF47463AB2F01800F065
:10B1700003FBA8693FB23818A861A8EB0700686212
:10B18000E868A9690844002C80F8009003D42B22B9
:10B190004270811C03E02D2141706442811C00201B
:10B1A0006A460AE023460A2493FBF4F404EB84067F
:10B1B000A3EB460302F8013B401C24B2002CF1DC57
:10B1C000012806DC49F02002652A04BF302201F87C
:10B1D000012B48B9302001F8010B07E0401E1DF893
:10B1E0000030303301F8013B0028F7DCEA68A86939
:10B1F0001044091AE96195F8380000F0140010288D
:10B200000DD16A69A969686A8A18E9698218A86A09
:10B210008A188218686B8242BCBF821A2A6205B003
:10B22000BDE8F083F8B505460E4617461C460020DB
:10B2300074B117F8011BB068A847B06030B1F06A6C
:10B24000401CF0620020641EF3D1F2BD4FF0FF30CD
:10B25000F2BD00007072696E74665F733A20256EED
:10B2600020646973616C6C6F776564007072696EDD
:10B2700074663A2062616420256E20617267756D84
:10B28000656E74007072696E74665F733A206261F5
:10B290006420257320617267756D656E740000000F
:10B2A0006E616E004E414E00696E6600494E46006A
:10B2B00030000268531C036011707047C9B20278F5
:10B2C0008A421AB11CBF10F8012FF9E718BF0020FD
:10B2D0007047FEE780B500B906A005490B681BB1B1
:10B2E00022220021984701E000F087FD222002BDC4
:10B2F000E0270020636F6E73747261696E7420685A
:10B30000616E646C65723A20626164206D6573736E
:10B310006167650000F10103810704D010F8011B8B
:10B32000820781B1FAD10268A2F10131914311F093
:10B33000803104BF50F8042FF6E709BAB1FA81F161
:10B3400000EBD100401CC01A7047FEE7C9B283076A
:10B3500006D0521E22D310F8013B9942F7D11FE0CC
:10B36000083A13D302F1040241EA012141EA014102
:10B3700050F8043B121F21BF4B40A3F1013C2CEAC3
:10B38000030C1CF0803FF3D0C9B2001F083210F844
:10B39000013B521E28BF91EA030FF8D818BF0120C5
:10B3A000401E7047BBBBE1B1B2F5803F80F07E80AC
:10B3B000022A1ED98C46B1FBF2F102FB11C31B0419
:10B3C00043EA1043B3FBF2FC02FB1C3380B240EAB9
:10B3D0000343B3FBF2F002FB103240EA0C400023BF
:10B3E0007047022A05D98446B0FBF2F002FB10C276
:10B3F00070474AB105D100F0010249085FEA300008
:10B40000704700220023704700F0FABC0B000200D6
:10B41000002100207047904271EB030CF6D3B3F586
:10B42000803F2FD2F0B5B3FA83F7B1FA81F4A7F1D8
:10B430000F0E3D1B5340CEF1200602FA0EF2F341EF
:10B440005340B5F10F0746D80F3C2C444140C4F19E
:10B450002006A040F1414140B1FBF3F603FB161179
:10B46000A2FB0645001BA94102D2761E8018594155
:10B4700080EA010221FA0EF362FA0EF200215A402C
:10B480003046F0BD30B4B1FBF3FC03FB1C11A2FB52
:10B490000C45001BA94103D2ACF1010C80185941A5
:10B4A00030BC02460B46604600217047B2F1807FF7
:10B4B00065D3F0B5B2FA82F7B1FA81F4C7F10F069D
:10B4C0003D1B22FA06F307F1110EF24120355A40D6
:10B4D000B5F10F07B8D94140C4F12006A040F141B1
:10B4E0004140B1FBF3FC03FB1C11A2FB0C45001B0C
:10B4F000A94103D2BCF1010C801859410F2F12D37E
:10B500000F3FC90341EA5041B1FBF3F603FB1611AB
:10B51000A2FB0645D4EBC030A94102D2761E8018AA
:10B52000594146EACC3C07B34140C7F12006B84038
:10B53000F1414140B1FBF3F603FB1611A2FB0645B6
:10B54000001BA94102D2761E8018594180EA0102EF
:10B5500021FA0EF3C7F1200462FA0EF20CFA07F09A
:10B560005A402CFA04F13043F0BD80EA010221FA7E
:10B570000EF3002162FA0EF260465A40F0BD8C468E
:10B58000B1FBF2F102FB11C31B0243EA1063B3FBF0
:10B59000F2FC02FB1C331B024CEA002043EA10635E
:10B5A000B3FBF2FC02FB1C331B024CEA002043EA13
:10B5B0001063B3FBF2FC02FB1C331B024CEA0020BD
:10B5C00043EA1063B3FBF2FC02FB1C324CEA00209E
:10B5D00000237047B0B581EA030C0CF0004C40F238
:10B5E000FF7515EA11541DBF15EA1357AC42AF425F
:10B5F00039E0E41923EA455343F48013C90241F0CA
:10B60000004141EA505EC7021100A7FB0202002878
:10B610004FF00000EEFB01204FF00001E3FB07219B
:10B6200018BF42F00102401800214941E3FB0E011E
:10B63000A4F580640F0302D252004041494154F105
:10B6400001046CDD470872F1004250F1000051EB3B
:10B650000451A1F580115CBF41EA0C01B0BD4CEA78
:10B6600005510020B0BD05EA1357AC4214BFAF42EC
:10B6700041E050EA410E1CBF52EA430E02E061462F
:10B680000020B0BD24423C441BD15FEA070EF6D037
:10B69000090302BF01460020AEF1140EB1FA81F792
:10B6A000AEEB070401FA07FE0C37C7F1200100FAE0
:10B6B00007F7C8404EEA000E23EA455343F48013CF
:10B6C000A2E733F00043B3FA83F704BFB2FA82FE75
:10B6D00077440B3FE41BB7F1200E2FBF02FA0EF3A5
:10B6E000BB40C7F1200E22FA0EFE38BF43EA0E031C
:10B6F000BA40641C82E750EA410E14BF52EA430E7E
:10B700006FF000014FF4001717EB430F8ABF194683
:10B7100017EB410FB5E74CEA05510020B0BDD4F15D
:10B720000104B4F120070FDAC4F12007520828BF42
:10B7300042F0010210FA07F501FA07F7E1BF2A43C8
:10B74000E0403843E1400FE0352C98DCC7F120049D
:10B7500052EA400220FA07F218BF42F0010231FA21
:10B7600007F0A1400A43002172F1004250F10000AD
:10B7700051EB0C01B0BDFEE762B38B0708D0521E3F
:10B7800011F8013B00F8013B00F024808B07F6D153
:10B79000830740F0208000BF103A07D330B4B1E8EF
:10B7A0003810103AA0E83810F9D230BC530724BF43
:10B7B000B1E80810A0E8081044BF51F8043B40F875
:10B7C000043BD20724BF31F8022B20F8022B44BFE0
:10B7D0000B7803707047121F17D35B0009D151F823
:10B7E000043B20F8023B1B0C121F20F8023BF6D250
:10B7F0000BE051F8043B00F8013B1B0A20F8023B28
:10B800001B0C121F00F8013BF3D238BF121D521E51
:10B8100024BF11F8013B00F8013BF8D87047FEE760
:10B8200010B5144600F002F8226010BDC1F30A53AF
:10B8300043B14A0012F5001F28D2A3F2FE32A1EB59
:10B840000251704750EA410C20D001F0004C31EA1F
:10B850000C01B1FA81F204BFB0FA80F3D2180B3AAE
:10B86000B2F120032CBF00FA03F1914041EA0C0130
:10B870003EBFC2F1200C20FA0CF319439040524213
:10B8800040F2FD33D21A01EB03517047002270479A
:10B890004FF4001C1CEB410F94BF1CEB430F09E05D
:10B8A00041EA030C50EA4C0C52EA0C0C03D29942C8
:10B8B00008BF9042704714BF8B4282427047FEE738
:10B8C0004FF4001C1CEB410F94BF1CEB430F09E02D
:10B8D00041EA030C50EA4C0C52EA0C0C03D28B42A6
:10B8E00008BF8242704714BF994290427047FEE7FA
:10B8F000124254D440F2FF7C1CEA11530FD063452E
:10B9000031D09B1863453CBF01EB0251704701F0F9
:10B91000004141EA0C510020AFF30080704750EA2B
:10B92000410320D001F0004C91EA0C011CD0B1FA87
:10B9300081F30B3B9A420DD9D21A994051EA0C017E
:10B94000C3F1200C20FA0CFC61449840531C40F2D7
:10B95000FF7CD7E7914041EA0C01C2F1200C20FAAC
:10B960000CF3194390407047B0FA80F31533202B45
:10B97000E0D3202AEED3203A203B9A4209D9D21AAA
:10B9800000FA03F141EA0C010020531C40F2FF7C55
:10B99000B8E700FA02F141EA0C0100207047524278
:10B9A00040F2FF7C1CEA11530DD06345DBD0B2EBB3
:10B9B000030C3CBFA1EB025170470CF1010221EADC
:10B9C000035141F4801150EA410CCCD001F0004CFD
:10B9D000352A27DC30B481EA0C01B2F1200309DA00
:10B9E000C2F12003044601FA03F5D0402843D140B8
:10B9F0009C400CE0C3F12002450020FA03F418BF7C
:10BA000044F0010421FA03F091400C43002174F149
:10BA1000004550F1000051EB0C01244230BC7FF492
:10BA20007BAF70476146002076E70000C1F30A5300
:10BA300040F2FE329B1A14DDD3F120034FEAE1728B
:10BA400008DDC90241EA505141F00040D840801859
:10BA50005040704703F2E13010B1D24382F0004011
:10BA60007047002070470000C11768B14840401A75
:10BA7000B0FA80F29040D21CC907C2F5846241EA54
:10BA8000025202EBD02140057047000070B44FF025
:10BA9000004591EA030F40F1B5816B40841A71EBC8
:10BAA000030603D2001BB141121973414FF4001C6D
:10BAB0001CEB410F34BF7CEB430442E00C0DA4EBC4
:10BAC0001356352E4FDC45EAC323DB0A45EAC12174
:10BAD000C912B6F120050DDD63FA05F6EB4086EAE2
:10BAE0000305124218BF45F00105C01851F10001CD
:10BAF0000CD213E062FA06F5F2405540F3415A4089
:10BB0000B340F3405A408018594107D349085FEACF
:10BB100030005FEA350528BF45F0010501F58011C9
:10BB2000420875F1004250F1000041EB04514E0013
:10BB300016F5001F70BC38BF70470020090D0905BD
:10BB400070471CEB410F10D252EA43060BD0BCEBFE
:10BB5000410F05D80C0DAB43661E342EB6DD02E056
:10BB6000AB438018594170BC704770BC70470000EF
:10BB7000F0B540F2FF7581EA030C0CF0004C15EAB9
:10BB800011541DBF15EA1357AC42AF42E5E0BC416A
:10BB9000C1F31301C3F31303801A994143F48013D3
:10BBA00004D2641E4000494180185941C90241EA4B
:10BBB0005051B1FBF3F603FB1611A2FB0675D7EB50
:10BBC000C020A94102D2761E80185941C90241EA1B
:10BBD0005051B1FBF3FE03FB1E11A2FB0E75D7EB18
:10BBE000C020A94103D2AEF1010E8018594189024B
:10BBF00041EA9051760546EA8E2EB1FBF3F603FB3F
:10BC00001611A2FB0675D7EB8020A94102D2761E41
:10BC100080185941C90241EA50514EEA060EB1FB63
:10BC2000F3F603FB1611A2FB0675D7EBC020A94162
:10BC300002D2761E80185941C90241EA5051B1FB27
:10BC4000F3F703FB1711A2FB0735D3EBC020A94183
:10BC500067F100070CBF004247F0010766F3D527E4
:10BC60004FEA1E31B80814F5806412DDBD0775F186
:10BC7000004250EB0E5051EB045111F5801F5CBF98
:10BC800041EA0C01F0BD4CF07F6141F0E041002041
:10BC9000F0BDBD076D0840EA0E5041F48011D4F1AB
:10BCA0000104B4F120060ADAC4F120060200E040E3
:10BCB00001FA06F3E1401843B24015430EE0342C7C
:10BCC00013DCC6F1200445EA40056D0820FA06F2AF
:10BCD000154321FA06F0A1400D43002175F1004201
:10BCE00050F1000051EB0C01F0BD00205FEA0C01A7
:10BCF000F0BDCFB992185B41B3FA83F704BFB2FA33
:10BD000082F6BF190B3FB7F120062FBF02FA06F3E8
:10BD1000BB40C7F1200622FA06F638BF3343BA40CB
:10BD20001CB1E419641E33E77F4231F00041B1FADF
:10BD300081F404BFB0FA80F6A4190B3CB4F12006DC
:10BD40002FBF00FA06F1A140C4F1200620FA06F642
:10BD500038BF3143A0403C1B1AE7AC421ABF05EA8A
:10BD60001357AF4212E050EA41061CBF52EA4306A5
:10BD7000BFE750EA4107304661461CBF41EA055122
:10BD8000F0BD52EA430C08BFC143F0BD00204FF4A0
:10BD9000001616EB410F98BF16EB430F08BF16EBCA
:10BDA000410F24BFC14305E016EB430F0CBF6146B2
:10BDB0004CEA0551F0BD0000400D491840EA8120D1
:10BDC0000CD2490DA1F58061491C40F0004005DB13
:10BDD000D1F11F0154BFC840C01770470020704701
:10BDE000014648B1B0FA80F18840C91CC1F58461B0
:10BDF000090501EBD02140057047012000F0B8B8DB
:10BE000070470000841A71EB030604D26E40001BD9
:10BE1000B141121973414FF4001C1CEB410F34BFA8
:10BE20007CEB430683E00C0DA4EB1356362E00F397
:10BE30007C80012E45EAC32341DC43EA525312BF02
:10BE4000D20292025B08240545EAC12141EA505121
:10BE5000D2EBC020994125D407D1B0FA80F610FA70
:10BE600006F162D00020203608E0B1FA81F6B14038
:10BE7000C6F1200220FA02F21143B0404FEAF474F6
:10BE8000B4EB465434F001064FEA74040AD8D6F5F0
:10BE90000016760D04F00044F04061FA06F25040BE
:10BEA000F1404840C00A40EA415021F0004128BF1B
:10BEB0005FEA500550F1000044EBD12135E0DB0A88
:10BEC00045EAC121C90AB6F120050EDD42EA024267
:10BED000120CC5F1200603FA06F6EB4042EA06050D
:10BEE0006D42984161F100010DE062FA06F5F24001
:10BEF000554063FA06FC82EA0C02F3405A406D4258
:10BF0000904161EB030111F4801F05D1641E6205AD
:10BF100002D06D004041494121F48011430875F180
:10BF2000004350F1000041EB045170BC70471CEB22
:10BF3000410F15D223F0004352EA43060BD04FEADB
:10BF40004C0CBCEB410F04D80C0D661E342EB7DD33
:10BF5000EBE7801A994150EA410608BF0021E4E767
:10BF600008BF1CEB430F28BF6FF00001DDE70000A6
:10BF700080B5AFF30080024A11001820ABBEFBE78A
:10BF80002600020000000000000000000000000089
:10BF900000000000000000000000000000000000A1
:10BFA00000000000000000000000000000F0F0F0C1
:10BFB000000000000000000000017F010000000000
:10BFC00000000000001C1C1C00000000000080603D
:10BFD000301C8C60301C0C000000000000000000D1
:10BFE0000000000000000000000000000000000051
:10BFF000000000E00000000000E000000086E69F76
:10C0000086868686E69F860000011F0101010101E8
:10C010001F010100000080C06020F820E0C0000087
:10C02000000003070C18FF70E18100000000070FFB
:10C0300010107F100F07000080602060800000005B
:10C04000E02000000F3020309F70DC371030C0003F
:10C050000000100E03000718101807000000C02091
:10C0600020E0C0000000000080E01F38E88703C423
:10C070003C040000070F1810100B070D10100800EB
:10C0800000808C4C38000000000000000000000020
:10C0900000000000000000000000000000000000A0
:10C0A0000000000000000000000080E030080400F4
:10C0B0000000000000FEFF01000000000000000082
:10C0C0000000030F1820400000040830E08000004A
:10C0D000000000000000000001FFFE000000000062
:10C0E000004020180F0300000000000000000000C6
:10C0F0000000C00000000000004266663C18FF1807
:10C100003C666642000000000000030000000000E2
:10C11000000000000000800000000000001010106F
:10C120001010FF101010101000000000000003009D
:10C1300000000000000000000000000000000000FF
:10C1400000000000000000000000000000808C4C97
:10C1500038000000000000000000000000000000A7
:10C16000000000000010101010101010101010002F
:10C1700000000000000000000000000000000000BF
:10C1800000000000000000000000000000000000AF
:10C190000000000000001C1C1C000000000000004B
:10C1A0000000000000000000E0380C00000000006B
:10C1B00080701C03000000000060380E01000000C9
:10C1C00000000000000080C060202060C0800000EF
:10C1D00000FEFF010000000001FFFE000001070E4D
:10C1E000181010180E0701000000808080C0E000C9
:10C1F000000000000000000000FFFF000000000041
:10C2000000001010101F1F101010000000804020B0
:10C2100020202060C0800000000303008040203800
:10C220001F070000001C1A1918181818181F000002
:10C230000080C020202060C08000000000030300B8
:10C240001010182FE780000000070F1010101018B2
:10C250000F070000000000000000C0E0F000000038
:10C2600000C0B088868180FFFF8080000000000051
:10C270000010101F1F1010000000E0606060606080
:10C280006060000000003F1008080818F0E000009F
:10C2900000070B101010101C0F030000000080C0DE
:10C2A00040202020E0C0000000FCFF21100808080A
:10C2B00018F0E0000001070C18101010080F030020
:10C2C0000000C0E06060606060E0600000000300AB
:10C2D0000000E0180700000000000000001F1F0021
:10C2E000000000000080C0602020202060C080008E
:10C2F0000087EF2C1818303068CF830000070F0834
:10C3000010101010180F07000000C0C020202020BF
:10C31000C0800000001F3F604040402010FFFE0032
:10C3200000000C1C101010080F030000000000009B
:10C33000000000000000000000000000000E0E0ED3
:10C340000000000000000000001C1C1C0000000099
:10C3500000000000000000000000000000000000DD
:10C36000000C0C0000000000000000000058380025
:10C3700000000000000000000000008040201000CD
:10C3800000001028448201000000000000000000AE
:10C39000000001020408100000000000000000007E
:10C3A0000000000000848484848484848484840065
:10C3B000000000000000000000000000000010204D
:10C3C000408000000000000000000000000001822A
:10C3D00044281000000010080402010000000000C2
:10C3E00000C020201010101030E0C0000003030037
:10C3F00000F010080C070300000000001C1C1C00CB
:10C4000000000000000000C0406020202040C0006C
:10C4100000FCFF01F00E03C1FE03807F0001070E48
:10C4200008111110110904020000000080E0E00072
:10C43000000000000000807C4340477FF88000003F
:10C4400010181F1000000000131F1C1020E0E02037
:10C4500020202060C080000000FFFF101010101886
:10C460002FE78000101F1F1010101010180F07006A
:10C47000000080C0402020202060E00000FCFF0180
:10C4800000000000000001000001070E181010104D
:10C490000804030020E0E02020202040C0800000AD
:10C4A00000FFFF000000000001FFFE00101F1F1032
:10C4B000101018080E07010020E0E02020202020A6
:10C4C0002060800000FFFF101010107C00000000B2
:10C4D000101F1F10101010101018060020E0E02090
:10C4E000202020206060800000FFFF101010107CD2
:10C4F00000000100101F1F100000000000000000DD
:10C50000000080C06020202040E0000000FCFF010F
:10C5100000004040C0C140400001070E181010103C
:10C520000F0F000020E0E0200000000020E0E020ED
:10C5300000FFFF101010101010FFFF00101F1F1041
:10C5400000000000101F1F100000202020E0E0204D
:10C55000202000000000000000FFFF00000000009D
:10C5600000001010101F1F1010100000000000002D
:10C57000202020E0E020202000000000000000FF3C
:10C58000FF0000000060E0808080C07F3F0000006E
:10C5900020E0E020000020A06020200000FFFF300D
:10C5A000187CE3C000000000101F1F1000000113E2
:10C5B0001F1C181020E0E020000000000000000018
:10C5C00000FFFF000000000000000000101F1F100F
:10C5D000101010101018060020E0E0E0000000002D
:10C5E000E0E0E02000FF013FFEC0E01E01FFFF0091
:10C5F000101F1000031F0300101F1F1020E0E0C0D9
:10C60000000000000020E02000FF0003071C78E08D
:10C610008000FF00101F100000000000030F1F002B
:10C62000000080C060202060C080000000FEFF018C
:10C630000000000000FFFE000001070E1810101897
:10C640000C07010020E0E0202020202060C08000B6
:10C6500000FFFF2020202020301F0F00101F1F1080
:10C660000000000000000000000080C0602020608A
:10C67000C080000000FEFF010000000000FFFE007F
:10C680000001070E1111133C7C67210020E0E0201F
:10C690002020202060C0800000FFFF101030F0D06C
:10C6A000080F0700101F1F10000000030F1C1010C0
:10C6B0000080C060202020204040E00000070F0CD8
:10C6C0001818303060E08100001F0C0810101010A6
:10C6D000180F07008060202020E0E02020206080EC
:10C6E0000100000000FFFF0000000001000000004A
:10C6F000101F1F100000000020E0E02000000000DC
:10C700000020E02000FFFF00000000000000FF000C
:10C7100000070F1810101010100807002060E0E04C
:10C720002000000020E060200000077FF8800080EB
:10C730007C03000000000000071F1C070000000031
:10C7400020E0E02000E0E0200020E0200007FFF8EB
:10C75000E01FFFFCE01F00000000031F0300011F9B
:10C7600003000000002060E0A0000020E060200046
:10C77000000000038F7CF8C6010000000010181EA6
:10C78000130001171F1810002060E0E020000000D7
:10C7900020E06020000001073EF8E01807000000DC
:10C7A00000000010101F1F1010000000008060200B
:10C7B000202020A0E0E0200000000000C0F03E0F9C
:10C7C0000300000000101C1F1710101010180600A6
:10C7D0000000000000FC0404040404000000000049
:10C7E00000FF00000000000000000000007F40404B
:10C7F00040404000000010E0000000000000000089
:10C8000000000000031C6080000000000000000029
:10C81000000000030C70800000000404040404FC09
:10C820000000000000000000000000FF0000000009
:10C83000000040404040407F000000000000001029
:10C84000080C040C081000000000000000000000AC
:10C8500000000000000000000000000000000000D8
:10C8600000000000000000000000000000000000C8
:10C8700000000000000000008080808080808080B8
:10C880008080808000000004040808000000000090
:10C890000000000000000000000000000000000098
:10C8A0000000000000000000000000000000000088
:10C8B00000000000000098D844642424FCF8000024
:10C8C000000F1F18101010081F1F10180020E0F094
:10C8D00000000000000000000000FFFF1808040432
:10C8E0000CF8F00000001F0F18101010180F0300B4
:10C8F00000000000000000000000000000E0F81848
:10C900000404043C3800000000030F0C1010101049
:10C91000080600000000000000000020E0F0000019
:10C9200000E0F81C04040408FFFF000000030F18D7
:10C93000101010081F0F0800000000000000000089
:10C94000000000000000E0F8484444444C787000C7
:10C950000000030F0C181010100804000000000065
:10C9600080C0602020E0C00000040404FFFF040435
:10C9700004040000000010101F1F10101000000021
:10C98000000000000000000000000000000070F83F
:10C990008C04048CF874040C007076CF8D8D8D8916
:10C9A000C87870000020E0F00000000000000000E7
:10C9B0000000FFFF08040404FCF8000000101F1F23
:10C9C000100000101F1F1000000000000060600039
:10C9D000000000000000040404FCFC000000000053
:10C9E00000001010101F1F101010000000000000A9
:10C9F000000000606000000000000000040404FC6F
:10CA0000FC0000000000C0C08080C07F3F0000002C
:10CA10000020E0F000000000000000000000FFFF28
:10CA200080C0F41C0404000000101F1F1100031F2D
:10CA30001C1010000000202020E0F000000000008A
:10CA40000000000000FFFF000000000000001010C8
:10CA5000101F1F1010100000000000000000000058
:10CA60000000000004FCFC0804FCFC0804FCFC00C2
:10CA7000101F1F10001F1F10001F1F1000000000BC
:10CA800000000000000000000004FCFC0808040492
:10CA9000FCF8000000101F1F100000101F1F1000E6
:10CAA00000000000000000000000000000E0F0189E
:10CAB0000C04040C18F0E00000030F0C1010101010
:10CAC0000C0F030000000000000000000000000048
:10CAD0000004FCFC080404040CF8F0000080FFFFD4
:10CAE000889010101C0F03000000000000000000E0
:10CAF0000000000000E0F81C04040408F8FC00003A
:10CB000000030F1810109088FFFF80000000000045
:10CB10000000000000000000040404FCFC100804F5
:10CB2000040C0C001010101F1F101010000000004B
:10CB3000000000000000000000000000000030784D
:10CB4000CCC48484840C1C0000001E18101010112A
:10CB5000190F06000000000000C0000000000000E7
:10CB600000040404FFFF04040400000000000000AF
:10CB70000F1F1010100C000000000000000000004B
:10CB8000000000000004FCFE00000004FCFE0000A9
:10CB900000000F1F181010081F0F080000000000F1
:10CBA000000000000000000000040C3CFCC4000079
:10CBB000C43C0C0400000000010F1E0E0100000028
:10CBC000000000000000000000000000043CFCC465
:10CBD00000E47CFC84807C040000071F0700000741
:10CBE0001F0700000000000000000000000000001F
:10CBF0000004041C7CE4C0341C0404000010101C5D
:10CC00001601131F1C181000000000000000000097
:10CC10000000000000040C3CFCC400C43C04040000
:10CC20000000C080C1370E010000000000000000BD
:10CC3000000000000000000000001C0404C4F47C9C
:10CC40001C0400000000101C1F17111010180E000B
:10CC500000000000000000F80C04000000000000CC
:10CC6000001028EF00000000000000000000003F5E
:10CC700060400000000000000000FF000000000015
:10CC8000000000000000FF000000000000000000A5
:10CC90000000FF00000000000000040CF80000008D
:10CCA0000000000000000000EF281000000000005D
:10CCB000000040603F000000000000000018060275
:10CCC00002040810202030080000000000000000CE
:10CCD0000000000000000000000000000000000054
:10CCE0002DE9F84384B006000F0091469846484667
:10CCF00080B2800000F058FE0500002D0BD05820B7
:10CD000000F052FE0400002C01D0256304E028004E
:10CD100000F0D4FE00E00024002C13D00D990C98F4
:10CD20000022039202940191009043461FFA89F970
:10CD30004A463900300000F00AF8200000F065F89B
:10CD4000012001E05FF0FF3005B0BDE8F0832DE980
:10CD5000F84380460C0017001D000A9EB900A5226A
:10CD6000D6F83090484600F051FF306B00EB87005A
:10CD7000071FFF08FF0017F00700002807D010204A
:10CD800080F31188BFF34F8FBFF36F8FFEE7002151
:10CD900000E0491C142907D2605C06EB010282F80E
:10CDA0003400605C0028F4D1DDF82090002086F883
:10CDB0004700B9F1100F01D35FF00F09099CC6F8C5
:10CDC0002C90C6F848900020F064301D00F060FF01
:10CDD00016F1180000F05CFF3661D9F11009C6F8B1
:10CDE0001890766200203065002086F854000020FC
:10CDF00086F855002A004146380000F087FF306071
:10CE0000002C00D02660BDE8F18338B5040001F0A5
:10CE10000DF8DFF898140868401C0860DFF890549B
:10CE20002868002806D12C60086801280DD100F080
:10CE30001EFB0AE0DFF87C040068002805D1E06AE8
:10CE40002968C96A884200D32C60DFF8A40401680D
:10CE5000491C0160DFF89C140A680123E06A8340E2
:10CE60001A430A60211DDFF89024E36A142043432B
:10CE700002EB030000F00FFF00F0F2FFDFF83404D4
:10CE8000006800280DD02868C06AE16A884208D28C
:10CE90005FF08050DFF804150860BFF34F8FBFF3D9
:10CEA0006F8F31BD38B5040000F0C0FF002C03D1F6
:10CEB000DFF8FC030468FFE7201D00F013FF0028E3
:10CEC0000FD1DFF83414E26A142042438858002856
:10CED00007D1DFF820140A680123E06A83409A43EF
:10CEE0000A60A06A002803D014F1180000F0FAFECE
:10CEF000DFF8FC030168491C0160DFF8B4532868BF
:10CF000084420AD1211DDFF8740400F0C4FEDFF86A
:10CF100070040168491C016009E0DFF890030168B2
:10CF2000491E0160200000F0E9FA00F0F0FA00F07C
:10CF300097FFDFF880030068002818D02868844233
:10CF400015D1DFF840040068002807D0102080F3D6
:10CF50001188BFF34F8FBFF36F8FFEE75FF08050F4
:10CF6000DFF838140860BFF34F8FBFF36F8F31BD08
:10CF700010B504000020002C14D0DFF8080400686D
:10CF8000002807D0102080F31188BFF34F8FBFF324
:10CF90006F8FFEE700F048F80021200000F0A8FCA9
:10CFA00000F048F8002808D15FF08050DFF8EC135B
:10CFB0000860BFF34F8FBFF36F8F10BDE0B5DFF890
:10CFC000A00701900020009000238022DFF8941732
:10CFD0000FF27940FFF784FE012801D100F0BCFF79
:10CFE000012816D1102080F31188BFF34F8FBFF3B3
:10CFF0006F8F5FF0FF30DFF88C1708600120DFF8DB
:10D00000B41208600020DFF89813086000F0A7FE53
:10D0100007BD10F1010FFBD1102080F31188BFF381
:10D020004F8FBFF36F8FFEE7DFF858030168491C8D
:10D030000160704770B500240025DFF84863306850
:10D04000002807D1102080F31188BFF34F8FBFF362
:10D050006F8FFEE700F0EAFE3068401E30603068F7
:10D06000002855D1DFF844020068002826D14FE09F
:10D07000C868C46814F1180000F034FE201D00F0E8
:10D0800031FEDFF870120A680123E06A83401A4318
:10D090000A60211DDFF86022E36A1420434302EB9B
:10D0A000030000F0F8FDE06ADFF804120968C96ABD
:10D0B000884203D30120DFF824180860DFF8C01687
:10D0C00008680028D4D1002C01D000F020FADFF845
:10D0D00028673468002C0CD000F022F8002803D018
:10D0E0000120DFF8F8170860641E002CF4D100203E
:10D0F0003060DFF8E8070068002809D001255FF0FC
:10D100008050DFF898120860BFF34F8FBFF36F8F26
:10D1100000F0A6FE280070BDDFF8840200687047AA
:10D12000F8B5002597480068002864D1DFF8700240
:10D130000468641C0460002C1AD1DFF8A417086886
:10D140000068002807D0102080F31188BFF34F8FAC
:10D15000BFF36F8FFEE70868DFF8882713680B605E
:10D160001060DFF884070168491C016000F0CFF906
:10D17000DFF81066306884422ED320E0381D00F0BE
:10D18000B1FDB86A002803D017F1180000F0AAFD1D
:10D1900058490A680123F86A83401A430A60391D16
:10D1A000554AFB6A1420434302EB030000F073FD71
:10D1B000F86A3F490968C96A884200D30125DFF847
:10D1C000201708680068002811D00868C068C76880
:10D1D00078688442D2D23060354800684649C26AD5
:10D1E00014204243885802280AD3012508E05FF042
:10D1F000FF303060F0E7DFF800060168491C01608D
:10D20000DFF8D8060068002800D001252800F2BD0C
:10D210005C480068002804D00120DFF8C0160860D0
:10D220002AE00020DFF8B416086032480068B0FA3F
:10D2300080F1D1F11F0114222F4B02FB01F018588D
:10D24000002807D1102080F31188BFF34F8FBFF360
:10D250006F8FFEE7514303EB01004168496841606D
:10D26000416810F10802914202D141684968416069
:10D270004068C0680E490860704710B50C0000286F
:10D2800007D1102080F31188BFF34F8FBFF36F8F4A
:10D29000FEE7DFF8D4160968183100F008FD012117
:10D2A000200000F025FB10BD0000000078270020C2
:10D2B000C42500208427002038B50D001400002864
:10D2C00007D1102080F31188BFF34F8FBFF36F8F0A
:10D2D000FEE7DFF894160968183100F0DCFC002C3A
:10D2E00001D05FF0FF352100280000F001FB31BDC7
:10D2F0009427002080270020C825002010B5C06892
:10D30000C468002C07D1102080F31188BFF34F8F21
:10D31000BFF36F8FFEE714F1180000F0E3FC19482B
:10D320000068002815D1201D00F0DCFCDFF83C1659
:10D330000A680123E06A83401A430A60211DDFF86E
:10D340003026E36A1420434302EB030000F0A3FC01
:10D3500005E014F11801DFF8280400F09CFCDFF868
:10D3600008060068C06AE16A884205D201200121EE
:10D37000DFF87825116000E0002010BD4C27002068
:10D3800060270020A0270020DFF85C1509680160F5
:10D39000DFF8E015096841607047000004ED00E027
:10D3A0007C27002038B504000D00002C07D1102088
:10D3B00080F31188BFF34F8FBFF36F8FFEE7002D0F
:10D3C00007D1102080F31188BFF34F8FBFF36F8F09
:10D3D000FEE700F02BFDDFF89C05016862688A1A01
:10D3E000DFF88435186890F85500002805D0002033
:10D3F000196881F8550001241EE0286810F1010F1A
:10D4000001D1002418E0DFF8E004006823689842A6
:10D4100004D06068814201D301240DE02868824273
:10D4200007D22868821A2A602000FFF7ADFF002487
:10D4300002E000202860012400F012FD200032BD2F
:10D440000120DFF8A81408607047000080B500F0E4
:10D4500037F8DFF81C0500680228F8D35FF0805029
:10D460003C490860BFF34F8FBFF36F8FEFE738B5CC
:10D47000002408E0DFF8F804142101FB04F108445B
:10D4800000F0F7FB641C102CF4D3DFF8EC44200010
:10D4900000F0EFFBDFF8E454280000F0EAFBB848A6
:10D4A00000F0E7FBDFF8D80400F0E3FB2A4800F0C7
:10D4B000E0FBDFF82C040460DFF8C804056031BD30
:10D4C00038B515E000F0B2FCDFF8B404C068C468F9
:10D4D000201D00F007FCDFF8B0040168491E016060
:10D4E0002868401E286000F0BBFC200000F006F811
:10D4F000DFF8985428680028E4D131BD10B5040045
:10D50000206B00F0DBFA200000F0D8FA10BDDFF845
:10D51000D01308680068002804D15FF0FF309949F3
:10D52000086005E00868C068C06840689549086000
:10D530007047DFF85C040068002801D1012007E093
:10D54000DFF850040068002801D1022000E000202C
:10D550007047000004ED00E064270020F8B50400E7
:10D560000021002848D0DFF80074E06A3A68D26AE7
:10D5700090423BD2A069002804D43868C06AD0F138
:10D580001000A061DFF8E85314266069E16A714376
:10D590002944884225D1201D00F0A4FB00280CD18D
:10D5A000E06A70432858002807D1DFF8C0130A68E2
:10D5B0000123E06A83409A430A603868C06AE062E7
:10D5C000DFF8A8130A680123E06A83401A430A605F
:10D5D000211DE06A06FB00F605EB060000F05BFB90
:10D5E00002E03868C06AE062012105E0A06C3A6898
:10D5F000D26A904200D201210800F2BD10B50400A9
:10D60000002100284FD0DFF860030068844207D073
:10D61000102080F31188BFF34F8FBFF36F8FFEE7A9
:10D62000E06C002807D1102080F31188BFF34F8FE2
:10D63000BFF36F8FFEE7E06C401EE064E06AA26C0F
:10D64000904230D0E06C00282DD1201D00F04AFB24
:10D6500000280FD1DFF81813E26A142042438858DB
:10D66000002807D1DFF804130A680123E06A834029
:10D670009A430A60A06CE062E06AD0F11000A061F9
:10D68000DFF8E8120A680123E06A83401A430A605F
:10D69000211DDFF8DC22E36A1420434302EB030080
:10D6A00000F0F9FA0121080010BD70B50400012254
:10D6B000002853D0E06C002807D1102080F3118897
:10D6C000BFF34F8FBFF36F8FFEE7A06C884200D38C
:10D6D000A16CE06A884241D0E06C90423ED1DFF814
:10D6E00088020068844207D1102080F31188BFF3BC
:10D6F0004F8FBFF36F8FFEE7E06AE162A269002AF5
:10D7000002D4D1F11001A161DFF8645214266169DD
:10D7100070432844814221D1201D00F0E3FA002803
:10D720000CD1E06A70432858002807D1DFF83C127A
:10D730000A680123E06A83409A430A60DFF82C12EA
:10D740000A680123E06A83401A430A60211DE06AE7
:10D7500006FB00F605EB060000F09DFA70BD000028
:10D760009C2700204C0F0100DFF8FC1108680028FE
:10D7700003D00868C26C521CC2640868704700007D
:10D78000382700209827002070B504000D0000F015
:10D790004DFBDFF8D4613068006D002812D1012004
:10D7A000316881F85400002D0CD00121280000F0D0
:10D7B0009FF85FF08050DFF8E0110860BFF34F8FF3
:10D7C000BFF36F8F00F04CFB00F030FB3068056D4D
:10D7D000002D08D0002C03D000203168086502E03D
:10D7E000681E316808650020316881F8540000F037
:10D7F00037FB280070BD0000882700202DE9F0418C
:10D8000004000F0090461D000126002C07D11020B7
:10D8100080F31188BFF34F8FBFF36F8FFEE700F0E7
:10D8200005FB002D01D0206D286094F854000221E2
:10D8300084F854105FFA88F8B8F1000F1AD0B8F1E4
:10D84000020F09D004D3B8F1040F0BD008D311E0B4
:10D85000216D0F4327650DE0216D491C216509E00D
:10D86000276507E00100C9B2022901D0276500E061
:10D870000026FFE7C0B201282BD1201D00F032FAAC
:10D880003A490A680123E06A83401A430A60211D6D
:10D89000374AE36A1420434302EB030000F0FBF92C
:10D8A000A06A002807D0102080F31188BFF34F8FA3
:10D8B000BFF36F8FFEE72C480068C06AE16A8842B8
:10D8C00007D25FF0805034490860BFF34F8FBFF339
:10D8D0006F8F00F0C5FA3000BDE8F0818C27002082
:10D8E0003027002034270020902700208C2700209C
:10D8F000F8B505000C001F4806681B4F002039686A
:10D9000081F855003868001D00F0ECF9002807D1B7
:10D91000386816490A680123C06A83409A430A603E
:10D9200015F1010F07D1002C05D03868011D1B48E7
:10D9300000F0B1F916E0AD1938684560B54206D27D
:10D940003868011D0F48006800F0B1F90AE0386836
:10D95000011D1348006800F0AAF9124801688D42C1
:10D9600000D20560F1BD0000C42500208027002002
:10D97000C82500207C270020082700201C27002025
:10D980004C27002034270020782700206027002023
:10D9900084270020A027002004ED00E06427002059
:10D9A00030270020982700202DE9F84304000025A7
:10D9B000FFF73AFBDFF83892D9F80000002801D1D0
:10D9C00000F0B8F88B4F3868044266D1002C15D0AF
:10D9D00089480068041914F0070F0FD014F10800EB
:10D9E00014F00704041B14F0070F07D0102080F375
:10D9F0001188BFF34F8FBFF36F8FFEE7002C4CD021
:10DA0000DFF8F881D8F80000A04246D37C48010036
:10DA1000066801E0310036687068A04202D23068C2
:10DA20000028F7D1D9F80000864236D072480A683B
:10DA3000036802EB030532680A6000684000716801
:10DA4000091B884214D206EB040111F007000028DC
:10DA500007D0102080F31188BFF34F8FBFF36F8F73
:10DA6000FEE77068001B48607460080000F091F8E1
:10DA7000D8F800107068091AC8F800106148D8F882
:10DA800000100268914202D2D8F80010016071685B
:10DA900038680143716000203060FFF7CBFA15F061
:10DAA0000700002807D0102080F31188BFF34F8FA4
:10DAB000BFF36F8FFEE72800BDE8F28310B50100C9
:10DAC000002833D04C480068404201EB000449492B
:10DAD00060680A68104207D1102080F31188BFF3F4
:10DAE0004F8FBFF36F8FFEE72068002807D010200C
:10DAF00080F31188BFF34F8FBFF36F8FFEE760682D
:10DB00000A68104212D0206800280FD162680868A5
:10DB100082436260FFF788FA38490A6860688218B1
:10DB20000A60200000F035F8FFF784FA10BD334892
:10DB30000068704710B44FF400523348010011F0F0
:10DB4000070F04D0C91DC908C900521A82182C48F1
:10DB5000016000234360521827480068121AD20857
:10DB6000D200234802600023046863600023046835
:10DB70002360521A4A60006808604868214A1060B1
:10DB800048681E4908605FF000401A49086010BCF0
:10DB9000704710B41A4A00E0126811688142FBD342
:10DBA000110053681944814204D1516840684118FA
:10DBB000516010000100436819441368994210D164
:10DBC0000B4913680C68A34208D043681168496880
:10DBD000CB18436011680968016004E009680160BE
:10DBE00001E011680160824200D0106010BC7047F3
:10DBF0003820002044200020600F01003C2000203D
:10DC000030200020402000203000002062F30F224E
:10DC100062F31F42401810F0030308D0C91A1FD343
:10DC2000DB0748BF00F8012D28BF20F8022D1300A4
:10DC300030B414461546103928BF20E93C00FAD804
:10DC4000490728BF20E90C0048BF40F8042D89008F
:10DC500028BF20F8022D48BF00F8012D30BC7047C6
:10DC6000C91818BF00F8012DCB0728BF00F8012DF7
:10DC7000704710F1080141605FF0FF31816010F1E1
:10DC80000801C16010F108010161002101607047C5
:10DC900000210161704742684A6093688B60936815
:10DCA0005960916008610168491C0160704710B4B7
:10DCB0000B6813F1010F01D1026907E010F10802AE
:10DCC00000E0526854682468A342FAD253684B605B
:10DCD0004B6899608A60516008610168491C016065
:10DCE00010BC70470169826843689A604268836823
:10DCF0005A604A68824201D182684A600022026109
:10DD00000868401E0860086870470000001F5FF048
:10DD100080730360001F490849000160001F0FF273
:10DD20001501016014380260001F7FF002010160DC
:10DD3000203870477248006810F1010F07D010209A
:10DD400080F31188BFF34F8FBFF36F8FFEE7102072
:10DD500080F31188BFF34F8FBFF36F8FFEE7E0B5FD
:10DD600068480168684A914207D1102080F3118801
:10DD7000BFF34F8FBFF36F8FFEE7006863498842A0
:10DD800007D1102080F31188BFF34F8FBFF36F8F3F
:10DD9000FEE75F4801780191FF21017001788DF85D
:10DDA00000109DF8001011F010015A4A11705A49E4
:10DDB00007220A6007E00A68521E0A609DF80020E8
:10DDC00052008DF800209DF800201206F3D40A6856
:10DDD000D2F10702042A07D0102080F31188BFF384
:10DDE0004F8FBFF36F8FFEE70A6812020A600A685E
:10DDF00012F4E0620A60019901704848016851F428
:10DE000070010160016851F07041016000F090F80C
:10DE100000203B49086000F0DDFA4148016851F0FC
:10DE20004041016000F0C6FA00200EBD102080F3D2
:10DE30001188BFF34F8FBFF36F8F31490A68521CAF
:10DE40000A60096801290AD136490968090606D01D
:10DE500080F31188BFF34F8FBFF36F8FFEE77047DA
:10DE600027490868002807D1102080F31188BFF3E4
:10DE70004F8FBFF36F8FFEE70868401E0860086889
:10DE8000002802D1002080F31188704780B510204F
:10DE900080F31188BFF34F8FBFF36F8FFFF740F907
:10DEA000002803D05FF080501E490860002080F3F6
:10DEB000118801BDEFF3058010280FD31A490968B6
:10DEC000085C14490978C0B2884207D2102080F358
:10DED0001188BFF34F8FBFF36F8FFEE70E480068C6
:10DEE0001249096811F4E061884207D2102080F3DA
:10DEF0001188BFF34F8FBFF36F8FFEE770470000AD
:10DF00005085FF1F00ED00E071C20F4170C20F414C
:10DF100000E400E0E72700202021002020ED00E0C1
:10DF200034EF00E004ED00E0640F01000CED00E0D0
:10DF30000548002101600021044A11600449054A96
:10DF4000116007210160704710E000E018E000E078
:10DF50007F38010014E000E01CB5002400F0C2F995
:10DF6000DFF8B803006800280DD0DFF8B403019093
:10DF70000E20009000238022DFF8A8130FF2E100AA
:10DF8000FEF7AEFE0400002C07D1102080F31188AC
:10DF9000BFF34F8FBFF36F8FFEE7200016BD7FB535
:10DFA00004001D000020002C07D1102080F31188F0
:10DFB000BFF34F8FBFF36F8FFEE7DFF86063336807
:10DFC000002B1CD0009101920294062911DAFFF770
:10DFD000B0FA022806D1089A00236946306800F09A
:10DFE000A1FA0CE0002300226946306800F09AFA9A
:10DFF00005E000232A006946306800F05EFB04B0AB
:10E0000070BD7CB504000D00DFF81C030068C0681B
:10E01000C668301DFFF766FEF06901281AD123009B
:10E020002A00B1690919300000F086F8002811D0E3
:10E03000002000900023220000213000FFF7AFFFF6
:10E04000002807D1102080F31188BFF34F8FBFF352
:10E050006F8FFEE73000716A884773BD00000000D3
:10E0600080B5684600F041F8009900F003F800F030
:10E0700082F8F6E77CB505000C00FEF7D5FF684690
:10E0800000F047F80600009800282BD1002C08D19A
:10E09000AE4206D3FEF7CEFF31002800FFF7B1FFF6
:10E0A00022E0002C08D0DFF8840200680068002815
:10E0B00001D1012400E000242200AD1B2900DFF87B
:10E0C0005C02006800F0F4FDFEF7B4FF00280BD1FD
:10E0D0005FF08050DFF858120860BFF34F8FBFF336
:10E0E0006F8F01E0FEF7A6FF73BDDFF83C221168D9
:10E0F0000968002901D1012100E00021C9B20160B5
:10E100000068002803D11068C068006800E00020A3
:10E11000704770B50400FEF7FFFF0500854E3068BC
:10E12000854204D200F0A5F80120206001E0002023
:10E1300020603560280070BD10B50024416000618A
:10E140008A420BD3D21A81698A4201D3012410E09A
:10E15000011D76480068FFF7AAFD0AE09A4203D243
:10E16000994201D3012404E0011D6F480068FFF7C4
:10E170009EFD200010BD10B586B0FFE7002201A96A
:10E180006648006800F064FB002870D00198002801
:10E190000ED502AA002A07D1102080F31188BFF300
:10E1A0004F8FBFF36F8FFEE79168506812689047FA
:10E1B00001980028E2D4039C6069002802D0201D49
:10E1C000FFF790FD05A8FFF7A4FF010001980028C4
:10E1D0000ED002280CD00BD304282ED02CD3062826
:10E1E00006D03FD3082827D002D3092825D03DE008
:10E1F000029B0A000299A06941182000FFF79CFFCA
:10E200000028BBD02000616A8847E0690128B5D1A9
:10E21000002000900023029AA069821800212000AB
:10E22000FFF7BDFE0028A9D1102080F31188BFF3AD
:10E230004F8FBFF36F8FFEE7A0E70298A061A06940
:10E24000002807D00B000A00A06941182000FFF742
:10E2500073FF93E7102080F31188BFF34F8FBFF354
:10E260006F8FFEE72000FFF729FC87E786E706B0FF
:10E2700010BD7CB505E070603661311D2068FFF788
:10E2800016FD294C20680068002825D02068C06849
:10E2900005682068C068C668301DFFF723FD3000A0
:10E2A000716A8847F0690128EBD1B069401985424D
:10E2B000E1D30020009000232A0000213000FFF766
:10E2C0006EFE002800D0DCE7102080F31188BFF339
:10E2D0004F8FBFF36F8FFEE7206814490A682260F2
:10E2E000086073BD70B5FFF7A1FD0C4C20680028D5
:10E2F00011D1114D2800FFF7BCFC104E3000FFF784
:10E30000B8FC0948056009480660002210210A206F
:10E3100000F0B7F82060FFF7A3FD70BDD427002000
:10E32000D8270020540F0100CC270020D027002040
:10E3300004ED00E0DC270020A4270020B8270020FF
:10E34000EFF30980BFF36F8F264B1A681EF0100F92
:10E3500008BF20ED108A20E9F04F106009B44FF09B
:10E36000100080F31188BFF34F8FBFF36F8FFEF75C
:10E370004FFF4FF0000080F3118809BC196808684E
:10E38000B0E8F04F1EF0100F08BFB0EC108A80F319
:10E390000988BFF36F8F7047124B19680868B0E89F
:10E3A000F04F80F30988BFF36F8F4FF0000080F3C8
:10E3B000118870470C480068006880F308884FF0A7
:10E3C000000080F3148862B661B6BFF34F8FBFF3CD
:10E3D0006F8F00DFDFF81400016841F47001016005
:10E3E00070470000C425002008ED00E088ED00E043
:10E3F00038B504000D00002C07D1102080F31188DF
:10E40000BFF34F8FBFF36F8FFEE7FFF70FFD21685C
:10E41000E26B206C424301EB020060600020A063CD
:10E420002068A0602168E26B521E206C424301EB21
:10E430000200E0605FF0FF3084F8440084F845009B
:10E44000002D12D12069002817D014F11000FEF71A
:10E4500055FF002811D05FF08050DFF8E416086007
:10E46000BFF34F8FBFF36F8F07E014F11000FFF77A
:10E4700000FC14F12400FFF7FCFBFFF7F1FC012086
:10E4800032BDF8B506000D001700002E07D1102090
:10E4900080F31188BFF34F8FBFF36F8FFEE7002D1E
:10E4A00001D1002001E005FB06F04830FFF77CFABF
:10E4B0000400002C08D014F1480200943B00DBB2A9
:10E4C0002900300000F002F82000F2BD80B5029B68
:10E4D000002901D11B6000E01A60D8631964012192
:10E4E0001800FFF785FF01BD10B50C00002807D10B
:10E4F000102080F31188BFF34F8FBFF36F8FFEE7BB
:10E50000A04207D2102080F31188BFF34F8FBFF3D2
:10E510006F8FFEE702220021FFF7B3FF002800D033
:10E52000846310BDF7B505000E001F000024002D08
:10E5300007D1102080F31188BFF34F8FBFF36F8F87
:10E54000FEE7002E02D1286C002801D1012000E056
:10E550000020C0B2002807D1102080F31188BFF33B
:10E560004F8FBFF36F8FFEE7022F02D1E86B0128B8
:10E5700001D1012000E00020C0B2002807D1102006
:10E5800080F31188BFF34F8FBFF36F8FFEE7FEF765
:10E59000D0FF002802D10298002801D1012000E01C
:10E5A0000020C0B2002838D1102080F31188BFF3BA
:10E5B0004F8FBFF36F8FFEE7029800285CD0002CCE
:10E5C00003D16846FEF7E0FE0124FFF749FCFEF7A1
:10E5D0002BFDFFF72BFC95F9440010F1010F02D140
:10E5E000002085F8440095F9450010F1010F02D193
:10E5F000002085F84500FFF733FC02A96846FEF7C6
:10E60000D1FE002852D1280000F043FB002837D16A
:10E61000280000F0F9FAFEF70DFDFFF707FCA86BE4
:10E62000E96B884201D3022FC6D13A00310028009D
:10E6300000F092FA696A00290FD015F12400FEF764
:10E640005DFE002814D05FF08050DFF8F4140860FD
:10E65000BFF34F8FBFF36F8F0AE0002808D05FF041
:10E660008050DFF8DC140860BFF34F8FBFF36F8F6B
:10E67000FFF7F6FB01201FE0FFF7F2FB00201BE095
:10E68000029915F11000FEF7F8FD280000F0BCFA21
:10E69000FEF7D0FC0028C0D15FF08050DFF8A01456
:10E6A0000860BFF34F8FBFF36F8FB6E7280000F00D
:10E6B000ABFAFEF7BFFC0020FEBD2DE9F8430500D4
:10E6C0000E0014009846002D07D1102080F3118809
:10E6D000BFF34F8FBFF36F8FFEE7002E02D1286C80
:10E6E000002801D1012000E00020C0B2002807D19D
:10E6F000102080F31188BFF34F8FBFF36F8FFEE7B9
:10E70000B8F1020F02D1E86B012801D1012000E02D
:10E710000020C0B2002807D1102080F31188BFF379
:10E720004F8FBFF36F8FFEE7FFF7C4FBEFF3118747
:10E73000102080F31188BFF34F8FBFF36F8FA86B4A
:10E74000E96B884202D3B8F1020F20D195F94590C8
:10E7500042463100280000F0FFF948465FF0FF31E3
:10E7600040B288420DD1686A00280ED015F124000D
:10E77000FEF7C4FD002808D0002C06D00120206040
:10E7800003E019F1010985F84590012000E000201F
:10E7900087F31188BDE8F28370B505000C00002DE9
:10E7A00007D1102080F31188BFF34F8FBFF36F8F15
:10E7B000FEE7286C002807D0102080F31188BFF3F3
:10E7C0004F8FBFF36F8FFEE72868002802D168687B
:10E7D000002801D1012000E00020C0B2002807D1AC
:10E7E000102080F31188BFF34F8FBFF36F8FFEE7C8
:10E7F000FFF760FBEFF31186102080F31188BFF361
:10E800004F8FBFF36F8FA86BE96B88421CD295F9CD
:10E810004510401CA86308005FF0FF3240B29042F0
:10E820000DD1686A00280DD015F12400FEF766FDB1
:10E83000002807D0002C05D00120206002E0491CF0
:10E8400085F84510012000E0002086F3118870BD96
:10E85000F7B506000F000024002E07D1102080F32A
:10E860001188BFF34F8FBFF36F8FFEE7002F02D1E8
:10E87000306C002801D1012000E00020C0B2002847
:10E8800007D1102080F31188BFF34F8FBFF36F8F34
:10E89000FEE7FEF74EFE002802D10298002801D1C3
:10E8A000012000E00020C0B200280CD1102080F32D
:10E8B0001188BFF34F8FBFF36F8FFEE7300000F07A
:10E8C000A3F9FEF7B7FBFFF7B1FAB56B002D06D140
:10E8D000029800281FD1FFF7C3FA002064E0390036
:10E8E000300000F07CF96D1EB563306900280ED051
:10E8F00016F11000FEF702FD002808D05FF08050EE
:10E90000DFF83C120860BFF34F8FBFF36F8FFFF744
:10E91000A7FA012048E0002C03D16846FEF734FD39
:10E920000124FFF79DFAFEF77FFBFFF77FFA96F9C8
:10E93000440010F1010F02D1002086F8440096F93E
:10E94000450010F1010F02D1002086F84500FFF7C5
:10E9500087FA02A96846FEF725FD002819D1300084
:10E9600000F089F90028A9D0029916F12400FEF7D9
:10E9700084FC300000F048F9FEF75CFB0028A2D1CF
:10E980005FF080506E490860BFF34F8FBFF36F8F09
:10E9900099E7300000F038F9FEF74CFB300000F04A
:10E9A0006AF900288FD00020FEBD73B582B0060042
:10E9B00000240025002E07D1102080F31188BFF31A
:10E9C0004F8FBFF36F8FFEE7306C002807D0102009
:10E9D00080F31188BFF34F8FBFF36F8FFEE7FEF711
:10E9E000A8FD002802D10398002801D1012000E0F1
:10E9F0000020C0B200280CD1102080F31188BFF392
:10EA00004F8FBFF36F8FFEE7300000F0FDF8FEF789
:10EA100011FBFFF70BFAB06B00280CD1039800280C
:10EA20002AD1002D24D0102080F31188BFF34F8FFE
:10EA3000BFF36F8FFEE7401EB0633068002802D13D
:10EA4000FEF792FE7060306900280DD016F11000BC
:10EA5000FEF754FC002807D05FF08050384908606A
:10EA6000BFF34F8FBFF36F8FFFF7FAF9012065E017
:10EA7000FFF7F6F9002061E0002C03D16846FEF7AD
:10EA800083FC0124FFF7ECF9FEF7CEFAFFF7CEF98D
:10EA900096F9440010F1010F02D1002086F84400DD
:10EAA00096F9450010F1010F02D1002086F84500CB
:10EAB000FFF7D6F903A96846FEF774FC002824D1B5
:10EAC000300000F0D8F800289ED03068002807D128
:10EAD000FFF7ACF97068FEF741FD0500FFF7C0F9DC
:10EAE000039916F12400FEF7C8FB300000F08CF803
:10EAF000FEF7A0FA00288CD15FF080501049086022
:10EB0000BFF34F8FBFF36F8F83E7300000F07CF8C7
:10EB1000FEF790FA300000F0AEF800283FF479AF2D
:10EB2000002D0AD0FFF782F9300000F00BF8010049
:10EB30007068FEF7BAFDFFF793F9002004B070BDCE
:10EB400004ED00E0416A002904D0006B0068D0F1B8
:10EB5000100000E0002070472DE9F041060015008C
:10EB60000027B46B306C002809D13068002831D1FF
:10EB70007068FEF743FD0700002070602AE0002D5A
:10EB80000FD1326CB5682800FCF7F6FDB068316C27
:10EB90000844B060B068716888421BD33068B060C8
:10EBA00018E0326CD6F80C804046FCF7E5FDF068C2
:10EBB000316C49420844F060F0683168884204D200
:10EBC0007068316C49420844F060022D02D1002C7B
:10EBD00000D0641E641CB4633800BDE8F08110B539
:10EBE0000C00016C00290ED0C168026C1144C16098
:10EBF000C1684268914201D30168C160026CC1687A
:10EC00002000FCF7B9FD10BD70B50400FFF70EF948
:10EC100094F9455008E014F12400FEF76FFB00283A
:10EC200001D0FEF70DFC6D1E280040B2012802DB6A
:10EC3000606A0028EFD15FF0FF3584F84550FFF798
:10EC40000FF9FFF7F3F894F9446008E014F11000AD
:10EC5000FEF754FB002801D0FEF7F2FB761E3000D1
:10EC600040B2012802DB20690028EFD184F844502B
:10EC7000FFF7F6F870BD10B50400FFF7D7F8A06BEA
:10EC8000002801D1012400E00024FFF7E9F820006A
:10EC900010BD10B50400FFF7C9F8A06BE16B884206
:10ECA00001D1012400E00024FFF7DAF8200010BDB4
:10ECB00070B504000D001600FFF7B8F894F9440091
:10ECC00010F1010F02D1002084F8440094F94500AE
:10ECD00010F1010F02D1002084F84500FFF7C0F8C1
:10ECE000A06B002805D13200290014F12400FEF7A2
:10ECF000E3FA2000FFF788FF70BD0000000000006D
:10ED0000000000000000000000000000000000F80B
:10ED100000000000000000333000000000100C066E
:10ED2000100C0600000000000000000040C0784009
:10ED3000C0784000043F04043F040400007088FCD5
:10ED400008300000001820FF211E0000F008F0002D
